:020000040000FA
:0600000082EF12F0120075
:020006001200E6
:06000800F7EF0FF01200FB
:02000E006B0283
:060010006B02AC02AC0221
:060018002BEF10F01200B6
:02001E000100DF
:0C0020000E000000F200000008000000CC
:04002C00F9D9020EEE
:10003000E1260101010E006F056F020ED96FE66A1D
:10004000C20EE66E010EE66EE66A88D917DAE55250
:10005000AED9DF6EDF5006DA02E2690EDF6E050E02
:10006000DF5EDFCF04F1B4D9E76E010EE7CFDBFF2F
:10007000DB50F8D903E2DE52690EDD6E050E006E2C
:10008000010EDBCFE7FF0050E75E010EE7CFDBFF9D
:10009000DBCF06F1020EE15C02E2E16AE552E16EBD
:1000A000C4D10101006B056BC6EF01F0B9D9E6526E
:1000B0000101005107E0060E005D04E0070E005D3F
:1000C00001E082D8060E0101005D10E1070E006F0D
:1000D00096D909C1EFFF93D9EE520AC1EFFFD2D9E9
:1000E0000B0EEE6E010EED6EDF6A02D0010EDF6EBA
:1000F000DF50E5529AD1070E0101005D02E1010EC9
:10010000006F12008DD9E652010105050FE1020EC4
:10011000056F75D9EF6A73D9EE5206C1EFFFB2D9F8
:10012000740EEE6E010EED6EDF6A02D0010EDF6E10
:10013000DF50E5527AD174D9030EE126020E010197
:10014000055D2FE1010E056F1B0E706FC00E716F04
:1001500056D9EFCF72F153D9EE52010EEFCFDBFF3C
:10016000DBCF73F1DB50040F64D9700EE66E010E25
:1001700070D9020EE7CFDBFF010EDB50EA6A740F85
:10018000E96E010EEA22020EDBCFEFFF010EDB501B
:10019000050FE66E700EE66E010EE66E0ED96ED994
:1001A00001D0010EDF6EDF50006E030EE15C02E253
:1001B000E16AE552E16E005038D1020E0101055DA1
:1001C00002E1010E056F12002BD9040EE12600C1D9
:1001D000DFFFDF50050A53E0010A3CE0070A25E093
:1001E000010A12E0030A01E089D0010EE66E070E53
:1001F000E66E010E3FD901E083D01B0E0101075DC1
:1002000001E07ED0020E74D0010EE66E080EE66E9E
:10021000010E30D975E1400E0101085D02E1030EC7
:1002200067D01B0E085D13E028D0010EE66E090EA4
:10023000E66E010E1FD964E1800E0101095D02E343
:10024000040E56D01B0E095D18E1020EDF6E1B0E68
:10025000076F56D0010EE66E0A0EE66E010E0AD941
:100260004FE1640E006E016A01010A51005C000E4C
:10027000015803E3016B050E3BD0010E39D0020E8D
:1002800001C1DBFFDBCFE6FF01010A29E552D8807F
:10029000E754E66E020EDB50016A0B0F006E010E92
:1002A000012200C0E6FF01C0E6FFA2D8DB5028E033
:1002B000020EDBCFE7FF010EDB50E726020EE7CF91
:1002C000DBFF01010A29F36E020EDB50F35C12E141
:1002D000050E0A25AED8070EE66E010EBAD8030E3B
:1002E000E7CFDBFFDB5003E1060EDF6E07D0010E28
:1002F000DF6E06D0020EDBCF01F102D0010EDB6A09
:10030000010EDB5007E0CDEC0DF0F3CF02F1F4CF9E
:1003100003F15FD7010EDB50FDE1DF0416E0060EAE
:10032000DF5C13E0070EDF5C10E00F0EE66EE66A9E
:10033000020EE66E010EE66EFDEC0DF0E5529ED863
:10034000F350F41002E1010EDF6EDFCF00F1040E76
:10035000E15C02E2E16AE552E16E67D099D803E11F
:1003600074EC0CF012D0D950FB0FE96EFF0EDA20BE
:10037000EA6EEECFE6FFEECFE6FFEECFE6FFEFCF81
:10038000E6FF04EC0AF07AD8E5524FD05ED802E1DD
:1003900084EF0CF05FEF0AF07BD804E137D896ECDD
:1003A0000CF003D033D86AEC0AF068D83ED04DD8B0
:1003B00002E1D4EF0CF0ACEF0AF06AD804E126D8E1
:1003C000DAEC0CF003D022D8B2EC0AF057D82DD0DA
:1003D0003CD802E11EEF0DF0F7EF0AF036D801E04D
:1003E00012001FEF0DF031D801E0120020EF0DF0E8
:1003F000D3DF44D8E76E010EE7CFDBFF1200FD0E1E
:10040000DBCFE9FFFE0EDBCFEAFF1200FC0EDBCFF5
:10041000E6FFFD0EDBCFE6FFFE0EDBCFE6FF1200B0
:10042000D9CFE6FFE1CFD9FF1200E552E7CFD9FFE0
:100430001200006E016A026A036AE66E01C0E6FFFE
:1004400002C0E6FF03C0E6FF12000101D951020A13
:100450001200E66E88EC10F0046E060EE15E0450A9
:10046000E76E1200006E016A690ED8800054000E1B
:1004700001541200E66EBCDFDB041200E552E552C7
:10048000E5521200BCDF020EE926000EEA2212003D
:06049000C7DF25EF02F0BA
:0A049600D9CFE6FFE1CFD9FF170E22
:1004A000E126B5D982EC00F0E552E552DF6EDF506F
:1004B00001E028D1D950050FE66E000EDA20E66E75
:1004C00056EC00F0E552E552DF6EDF5001E018D146
:1004D0000001CA6B0B0EDB6A0C0EDB6A050EDB50EB
:1004E000E76E090EE7CFDBFFDB50800FE76E0A0EE9
:1004F000E7CFDBFFDB50006E016A150E005C000EDB
:10050000015801E363D95DD927E20A0E016ADB34A1
:10051000FE0B0136006EBA0E0026240E01220D0ECF
:1005200000C0DBFF0E0E01C0DBFF0D0EDBCFF6FFC0
:100530000E0EDBCFF7FF09000F0EF5CFDBFF0A0031
:10054000100EF5CFDBFFD9500F0FE96EDACFEAFFBF
:10055000EE50ED1001E13AD934D931E2090EDB5009
:100560007F0BE76E010EE7CFDBFF0F0EDBCF00F056
:10057000100EDBCF01F0020EDBCFE6FFE66A030EC2
:10058000DBCFE6FF040EDBCFE6FF060EDBCFE6FF98
:10059000E66A070EDBCFE6FF080EDBCFE6FF04D0EE
:1005A00001C0FAFF0050F96EFBDF026E080EE15E3B
:1005B00002500B0EF3CFDBFF0C0EF4CFDBFF01D9A3
:1005C00001E290D0DE527F0EDD6E030EDBCFE9FF3D
:1005D000040EDBCFEAFF090EDBCFEFFF1FD9005E71
:1005E000800E015A010EE76E030EDBCFE9FF040E09
:1005F000F8D800C0EFFF020EF36E0B0EF3CFDBFF57
:100600000C0EDB6A110ECAC0DBFFDB506BE0020E82
:10061000DB50E76E120EE7CFDBFFDBCF00F00B0EF7
:10062000DBCF01F00C0EDBCF02F00150005C000EBE
:10063000025403E2120EDB6A09D0120EDBCFE7FF91
:100640000B0EDB50E75E120EE7CFDBFF110EDBCFA8
:1006500000F0120EDB50D880005406E2120EDB5080
:10066000E76E110EE7CFDBFF110EDB50006E016A63
:10067000D9500B0FE96EDACFEAFF0050EE26015099
:10068000ED22110EDB502EE0020EE76E030EDBCFE3
:1006900000F0040EDBCF01F0E7500026000E01222F
:1006A000150E00C0DBFF160E01C0DBFFD950130F83
:1006B000A6D8110EDB06DB50E76E130EDBCFE9FF89
:1006C000140E8FD8EF50E66E110EDB50E76E150E4C
:1006D000DBCFE9FF160E85D8E552E750EF6E110E1D
:1006E000DB50E7E10B0EDB50E76E020EE7CFDBFFDE
:1006F0008ED89BEC00F0E552E5527BEC00F002D086
:10070000DDEC00F0170EE15C02E2E16AE552E16E19
:10071000E552E7CFD9FF1200D9CFE6FFE1CFD9FFED
:10072000040EE12665D8140ED880EE54000EED5468
:1007300007E2140EF36EFB0EF3CFDBFFFC0EDB6A59
:10074000FB0EDBCFCAF054D8EE50ED1030E0D9509C
:10075000020F55D8FD0EDBCFDEFFDBCFDDFFFB0E3A
:10076000DB06FC0E01E2DB06FB0EDBCF02F0FC0E2B
:10077000DBCF03F0DE500224E96EDD500320EA6E89
:10078000EF50E66EFB0EDBCF00F0FC0EDBCF01F08E
:10079000020EDB500024E96E030EDB500120EA6EEE
:1007A000E552E750EF6E24D8EE50ED10D8E1040E7C
:1007B000E15C02E2E16AE552E16EE552E7CFD9FF82
:1007C00012002CD8005C800E01581200010EF36E4E
:1007D0000B0EF3CFDBFF800EF36E0C0EF3CFDBFFBF
:1007E0001200DBCFEAFFE750E926000EEA221200F2
:1007F000D950FB0FE96EFF0EDA20EA6E1200E96EA7
:10080000DACFEAFFCB0EEE6E000EED6E1200D9507D
:10081000010FE66E000EDA20E66E12000B0EDBCF43
:0C08200000F00C0EDBCF01F0000E120007
:04082C00D9CFE6FF3B
:10083000E1CFD9FF060EE1268ED901E040D9EED8EE
:1008400034E2D950020FE96EDACFEAFF270EEE6EDE
:10085000250EED6E71D9040E1AC0DBFF050E1BC00C
:10086000DBFF020EDBCFF6FF030EDBCFF7FF080046
:10087000F5501BE0D950F70F41D902E125D915D029
:10088000020EDBCFF6FFDB2A030EDBCFF7FF01E31F
:10089000DB2A22D9040EDBCFE9FFDB2A050EDBCFF2
:1008A000EAFF01E3DB2A4FD9DCD7B8D810E2040E07
:1008B000DBCF02F0050EDBCF03F0F90EDB50025C5C
:1008C000006EFA0EDB50035800C0DEFFDD6EC9D8A3
:1008D000060EE15C02E2E16AE552DED0A8D801E052
:1008E000EED89CD807E2DDD8060E005C000E015859
:1008F00001E2EAD893D82DE2BDD8240EF66E250E7B
:1009000007D921D9250EF66E250E02D9010E9AD8E7
:10091000220EF66E250EFCD8020E94D8200EF66E2E
:10092000250EF6D88FD8FC0E90D85A0806E1B0D81C
:10093000A50803E16FD8BCD804D0060EDB6A070E09
:10094000DB6AF1D8040ECCD8040E9CD8060EDE6EFD
:10095000DD6A87D8080EE15C02E2E16AE5529CD0CC
:1009600066D801E0ACD85AD807E29BD8070E005CE5
:10097000000E015801E2A8D851D83EE27BD8F00E13
:1009800064D833081FE184D8CC081CE143D8E9D8E7
:10099000DAD840D8EE52E5D8EE52D5D83BD8020E80
:1009A000D6D886D837D8040EB0D8040E4BD832D853
:1009B000050EABD8050E46D82DD8060EA6D8060EC5
:1009C00041D812D020D8EF6A1ED8EE52EF6A060E38
:1009D000DB6A070EDB6A17D8040E7BD814D8050E25
:1009E00078D811D8060E75D89ED8020E79D8020E86
:1009F00049D8070EDE6EDD6A34D8080EE15C02E2EB
:100A0000E16AE55249D0020EDBCFE9FF030EDBCFEE
:100A1000EAFF120081D8020EA7EF05F0DECF00F04A
:100A2000DDCF01F0000E005C800E01581200D9CF1E
:100A3000E6FFE1CFD9FF080EE126D950FD0F5ED8C1
:100A4000ABEF05F084D8A3EF05F0F36E040EF3CFFF
:100A5000DBFF1F0EF36E050EF3CFDBFF5DD8EF500B
:100A60001200DECF00F0DDCF01F000C0F3FF01C0C7
:100A7000F4FF120061D8020E1AC0DBFF030E1BC088
:100A8000DBFF120064D8010E62D802C0EFFF120033
:100A900043D8EE52EF501200E16EE552E7CFD9FF96
:100AA0001200F70EDBCF00F0F80EDBCF01F01200E2
:100AB000060EEECFDBFF070EEDCFDBFF1200040EBC
:100AC000DE6E800EDD6E1200060EDE6E800EDD6EB6
:100AD00012003DD8EF6A12000800F550E66E1200D1
:100AE00036D800C0EFFFFF0EE76E060EDBCF02F038
:100AF000070EE7500216036A03EF05F0E96EFF0EDA
:100B0000DA20EA6EEE50ED10120021D8B1EF05F0B8
:100B1000F76EE2DF03EF05F0040EDBCFE9FF050E11
:100B2000DBCFEAFF1200060E070EDBCF01F001C09B
:100B300000F0016A03EF05F0F90EDBCF1AF0FA0EB0
:100B4000DBCF1BF01200E552E750EF6E1200E926F2
:100B5000000EEA221200DE6ADD6AD950FB0F7EEF3A
:0A0B600005F0EF50E66E03EF05F01C
:060B6A006C500CE16896DE
:100B7000040100513C0BE842E8420D0802E10AD8AA
:100B8000010C3BD8010C040E6C5C03E1689644D860
:100B9000010C000C70D9E652040104BF046B000183
:100BA000F16BE96BEA6BEF6BF06BC8EC08F0DF6A96
:100BB000DF50006E016A010E005C000E01581AE25F
:100BC0000001EA5117E1F76ADF34FE0BF736F66EE3
:100BD000DF0EF626220EF7220900F5CF00F00800FE
:100BE000F5CF01F004D001C0FAFF0050F96EFBDF31
:100BF000DF2ADED7ACD8E55243D1020E0001E95D11
:100C000009E179D8040100BD02D0C80E01D0880ED8
:100C1000006F1200E0EF06F0040E0101FC5D09E137
:100C200022C46EFF6E50000802E2050E01D0030ED2
:100C3000FC6F0001E90510E111D8020E0001F15D21
:100C400003E10401840E06D0040104BD02D0C80EE5
:100C500001D0880E046F1200E0EF06F00CD9020EEE
:100C6000E1260001080EEF5D000EF0590DE2EFC025
:100C7000DEFFF0C0DDFFF15102E1010E03D0F1050E
:100C800006E1020EF16F03D0080EDE6EDD6A04018C
:100C900004930491010EDB500413DFCF05F4000E22
:100CA000DB500001EF5F010EDB50F05B280EED6FB3
:100CB000040EEE6F0101FDA30CD0D6D815E0EBC0F9
:100CC000F6FFECC0F7FF0800F550BED8F6E2DB06F1
:100CD000F4D7CAD809E0EBC0E9FFECC0EAFFEF5057
:100CE000B3D8F7E2DB06F5D7020EE15C02E2E16A77
:100CF000E552E16EC5D0BFD8020EE126030E040115
:100D00000015E76E010EE7CFDBFF01C4DFFFDE5009
:100D10000001EF27DD50F023280EEB6F040EEC6F7F
:100D2000A3D80EE0EBC0E9FFECC0EAFFEF50EDC046
:100D3000E9FFEEC0EAFFEF6EA7D8F2E2DB06F0D7DC
:100D4000020EE15C02E2E16AE552E16E99D06D9833
:100D50000001EA5105E180D8840E006F04011DD026
:100D6000040120AF1CD00001EF510401265D0001F9
:100D7000F0510401275904E226C4EFF027C4F0F033
:100D80006DDF0001010EE96F67D8800E006F04016E
:100D9000280E066F040E076FC80E046F12000001C4
:100DA000020EE96F0401056BC80E046F0401080E02
:100DB000016F280E026F040E036FC80E006F120041
:100DC0005AD8E652020E0001E95D35E16D50100B74
:100DD00032E004010151006E016A080E00182BE197
:100DE000015029E100513C0BE842E8420D0823E1A3
:100DF0000051800B20E1200E026F040E036FDF6AAA
:100E0000DF50006E016A080E005C000E01581AE205
:100E1000DF50EA6A280FE96E040EEA22EF50E66E10
:100E2000DF50EA6A200FE96E040EEA22E552E7502D
:100E3000EF6EDF2AE5D70001E96B0ED88C0E006F4C
:100E40000401046BE5521CD0EDC0E9FFEEC0EAFFDF
:100E5000EF6E000144EF07F00401080E016F200E51
:100E6000026F040E036F1200D9CFE9FFDACFEAFF59
:100E7000EE50ED101200D9CFE6FFE1CFD9FF1200FE
:100E8000E552E7CFD9FF1200ED2B000EEE23EB2B3E
:080E9000EC23DF06010E120045
:080E9800040120511F0B0108A9
:100EA00001E012002051600BE842E842E842E842CB
:100EB000E842010801E01200245103E0240501E0AA
:100EC00012002151230A39E0010A33E0030A25E028
:100ED000010A1CE0240A31E0070A2FE0010A2DE094
:100EE000030A0EE0010A01E012004ED90001EA0EE9
:100EF000EB6F010EEC6F0101FD930001080E17D09E
:100F000043D90001EA0EED6F010E05D03DD9000175
:100F1000E20EED6F010EEE6F120036D90001E20E07
:100F2000EB6F010EEC6F0101FD930001070EEF6FF7
:100F300012002AD922C4E9F1120012000101E26B69
:100F4000C20EE36F010EE46FE56BE66BE76B080E14
:100F5000E86FDB6BDA6B1A0E726E1E0E736E040195
:100F6000300E166F040E176F400E146F0401196FC8
:100F7000380E1A6F040E1B6F880E186F0401780E5E
:100F80001E6F040E1F6F400E1C6F1200D9CFE6FFBC
:100F9000E1CFD9FF0101DA6B040118BF30D0FC0E9C
:100FA000DBCF00F01951D880005403E2FC0E19C4C5
:100FB000DBFF0101DA6BFC0EDB50DA5D19E2DA517E
:100FC000EA6A380FE96E040EEA22EF50E66EDA5153
:100FD000E76EFD0EDBCFE9FFFE0EDBCFEAFFE75049
:100FE000E926000EEA22E552E750EF6EDA2BE3D74E
:100FF0000401400E196F1817187D880E181301018F
:10100000DA51E552E7CFD9FF1200ACD80101DB512C
:1010100014E1DF6AB2D802E101500BE0FD0EDBCF34
:10102000E9FFDB2AFE0EDBCFEAFF01E3DB2AEF500C
:10103000F1E175D8E16B010EDB6F9AD093D8010115
:10104000DB5115E1DF6A99D802E101500CE0FD0E99
:10105000DBCFF6FFDB2AFE0EDBCFF7FF01E3DB2A57
:101060000800F550F0E15BD8010EE16FDB6F80D036
:1010700079D804011CBF52D0030E0101DB5D01E1F0
:10108000DB6BDB514BE0020EDB5D03E104011D6B0A
:101090003CD0DB053DE1400E006E016AE051005C92
:1010A000000E015803E2400EDF6E02D0E0C1DFFF08
:1010B000DFCF1DF4DF50E05DE06F780EDE6F040ED1
:1010C000DF6FE1050AE1DF5011E0DCC1F6FFDDC1B1
:1010D000F7FF0800F5503AD8F6D7DF5007E0DCC13B
:1010E000E9FFDDC1EAFFEF5031D8F7D70101E05148
:1010F0000FE104011D51006E016A400E001805E168
:10110000015003E10101020E02D00101030EDB6F69
:10111000400E04011C171C7D880E1C1329D0DF50C3
:10112000006E016AD950FD0FE96EFF0EDA20EA6EFB
:101130000050EE5E0150ED5AFD0EDBCFDCF1FE0EED
:10114000DBCFDDF1DFCFE0F101011200DEC1E9FF0D
:10115000DFC1EAFFEF6EDE2B000EDF23DC2BDD2389
:10116000DF061200D9CFE6FFE1CFD9FFE652120029
:10117000E552E552E7CFD9FF1200DF2ADF50006EBB
:10118000016AFF0E001812000001030EEA6F120040
:1011900004012051600BE842E842E842E842E8429C
:1011A000000901E012002151070A40E00B0A3EE06D
:1011B000070A33E0010A23E00B0A1FE0020A1DE0E0
:1011C000030A19E0080A10E0010A0CE00F0A08E01F
:1011D000030A01E0120010D90101040EFC6F120095
:1011E00017EF09F04EEF09F007D90001FE0EEB6F83
:1011F000010EEC6F0CD069EF09F099EF09F000D9FE
:101200000001EB6FEC6BFF0EEB27010EEC230101ED
:10121000FD930001010EEF6F1200F2D8EA6AFF0F92
:10122000E96E010EEA2222C4EFFF12001200800EC6
:101230000401205D32E12351030A1FE0010A0AE0A4
:10124000030A29E1D9D80001140EEB6F220EEC6FCE
:10125000120E1ED0ABD8D50EF626220EB9D8020E2D
:101260000001F76AEB25F66EEC51F7220900F5CF85
:10127000EFF00A00F5CFF0F00ED098D8D90EF62690
:10128000220EA6D8EBC0F6FFECC0F7FF0800F55021
:101290000001EF6FF06B0101FD831200ADD80F0E5E
:1012A000E66E710EE66E0F0E9BD8010EE66EFF0E17
:1012B000E66E010E95D822C4FEF10401225104E12C
:1012C0000101050EFC6F12000101060EFC6F9EEF7E
:1012D00007F00401286B296B040120511F0B020A3F
:1012E0000DE0030A09E0010A16E186D80101FDA11B
:1012F00012D0040128830FD07FD80DD04BD801E045
:10130000010E5DD8EDC0E9FFEA6EEF50040B03E07B
:101310000401010E286F0001EA050AE10001280E10
:10132000EB6F040EEC6F0101FD930001020EEF6FF5
:101330001200040122050EE120511F0B00090AE1F1
:101340005BD8030E0401215D03E10101FD8102D0A0
:101350000101FD91040122511CE120511F0B0208E3
:1013600018E124510F0B000914E014D801E0010E1C
:1013700026D8030E0401215D04E1840E38D8EF6EF7
:10138000120024AF03D033D8EF6A1200880E2FD892
:10139000EF6E120035D80F0B080DF350016A000FE5
:1013A000006E040E01222451800B120025D8040186
:1013B0002251F66EF76AD890F636F7361200040D11
:1013C000F35000010024ED6F000E0120EE6F1200BB
:1013D000F7220900F5CFEBF00A00F5CFECF0120090
:1013E000E66E45EC0FF0E552E552E5521200EDC015
:1013F000E9FFEEC0EAFF12000001010EEA6F1200E1
:08140000FBDF0401245112007E
:0814080034D90001606B616B37
:10141000626B956B966B976B949C948EAC6AAB6A7F
:10142000AC9CAC8AAC98AC96AC84B886FB0EDBCF97
:1014300019F0FC0EDBCF1AF0FD0EDBCF1BF0FE0E19
:10144000DBCF1CF0800E191806E1250E1A1803E1F7
:101450001B5001E11C5026E0195006E14B0E1A18F2
:1014600003E11B5001E11C5019E0195006E1E10EA7
:101470001A1803E11B5001E11C500CE0195012E155
:10148000C20E1A180FE1010E1B180CE11C500AE1E4
:10149000670E01D0CF0EAF6EB06A08D0700EAF6E7F
:1014A000020E03D0E10EAF6E040EB06EAB8EAB9C9D
:1014B000AB889F889F8A9E989E9A9D8AD6D09D9A37
:1014C0009D98AB98AB9EAC9A948C948E12000001C0
:1014D00097511200CED8040EE126020EDB6AFD0EF3
:1014E000DBCFDEFFDBCFDDFFFC0EDB50000822E2AE
:1014F0000001975100081EE29651EA6A980FE96EC2
:10150000000EEA22EF50E66EDECFE9FFDDCFEAFF04
:10151000E552E750EF6EDF2A010E01E3DB2A962B3E
:10152000320E965D01E3966B020EDB2A9707FC0EE6
:10153000DB06DAD7030E97C0DBFFDB500C0801E3B4
:101540008290020EDB50006E040EE15C02E2E16A62
:10155000E552E16E005089D0320C320E0001D88085
:101560006255120086D8030EE126320E0001D880A3
:101570006255E76E020EE7CFDBFFFC0EDBCF00F01B
:10158000020EDB50D880005402E2010E27D0FD0E7F
:10159000DBCFDEFFDBCFDDFFFC0EDB5000081DE202
:1015A000DECFE9FFDDCFEAFFEF50E66E6051EA6A79
:1015B000630FE96E000EEA22E552E750EF6EDF2A74
:1015C000010E01E3DB2A602B320E605D01E3606BEC
:1015D000622B9D88FC0EDB06DFD7000E006E030E2B
:1015E000E15C02E2E16AE552E16E00503ED0320C6D
:1015F000D9CFE6FFE6529E509D14100B19E09E983D
:1016000000016251000813E282B20FD06151EA6A10
:10161000630FE96E000EEA22EF50AD6E612B320EC1
:10162000615D01E3616B620703D0AC9A01D09D98C4
:101630009E509D14200B17E09E9A320E0001975D7C
:101640000EE29551EA6A980FE96E000EEA22AECFDB
:10165000EFFF952B320E955D01E3956B972B260ED0
:10166000975D01E38280E55200D0E552E7CFD9FFD4
:0C1670001200D9CFE6FFE1CFD9FF120035
:04167C0016D9040E69
:10168000FCD8050EEE1801E1ED5001E013D9ECD8BD
:1016900050E215D9EECF02F0EECF03F0EECF04F01A
:1016A000EFCF05F0100ED89005320432033202322B
:1016B000E806F9E1016A03C0FAF0CFD8EECF06F0F0
:1016C000EECF07F0EECF08F0EFCF09F0100ED89074
:1016D0000932083207320632E806F9E10650000105
:1016E000FB6F0C680D680E6A0F6AB7D8EE500C16C7
:1016F000EE500D16EE500E16EE500F160B6A0DC082
:10170000FCF010681168126A136AA7D8EE50101620
:10171000EE501116EE501216EE5013161050FD6FCB
:101720009CD8040EE926000EEA22EFCFFEF0010E4F
:10173000FF6FADD8040EE15C02E2E16AE552B0D081
:10174000B4D8040E9AD8030EEE1801E1ED5001E072
:10175000B1D88AD80EE2B3D8020EE926000EEA22EA
:10176000EF50E66E7AD8B9D85AEC0FF0E552E55250
:10177000E5528DD8040EE15C02E2E16AE55290D0B8
:1017800094D8070E7AD8020EEE1801E1ED5001E070
:1017900091D86AD822E2F90EDBCF1AF0FA0EDBCF2D
:1017A0001BF0040E1AC0DBFF050E1BC0DBFF87D841
:1017B00094D89BEC0FF0E552E552E76E060EE7CFAA
:1017C000DBFF040EDBCFE9FFDB2A050EDBCFEAFFF0
:1017D00001E3DB2A060EDBCFEFFF46D810E2040E52
:1017E000DBCF02F0050EDBCF03F0F90EDB50025C1D
:1017F000006EFA0EDB50035800C0DEFFDD6E47D8E6
:10180000070EE15C02E2E16AE5524AD04ED8E652A8
:101810000001FF511BE0FD0EDBCFE9FFFE0EDBCF29
:10182000EAFFFAC0EEFFFBC0EEFFFCC0EEFFFDC01A
:10183000EEFFFB0EDBCFE9FFFC0EDBCFEAFFFEC0C5
:10184000EFFFFA0EDB5003E0FF6B01D0DF6ADF50E1
:10185000E552E552E7CFD9FF1200020EDBCFE9FFD8
:10186000030EDBCFEAFF1200DECF00F0DDCF01F088
:10187000000E005C800E01581200E126DE6ADD6A6F
:10188000D950FB0FE96EFF0EDA20EA6E1200DECFB0
:1018900000F0DDCF01F000C0F3FF01C0F4FF120043
:1018A000E16EE552E7CFD9FF1200D9CFE6FFE1CFD5
:1018B000D9FF1200040EDE6E800EDD6E1200FD0EEA
:1018C000DBCF1AF0FE0EDBCF1BF0020E1AC0DBFFDF
:1018D000030E1BC0DBFF2DEF0CF0EE52EF50E66E57
:0818E000BCDFEF50E66E1200C0
:0818E8000201006B016B026BB1
:1018F000356B366B376B140E6F6E0101FC6B01019B
:10190000FD6B0101FE6B1200120003D9E6526AC2A0
:10191000DFFFDF5005E0FE0EDB5002E002016A6BE4
:10192000DF50E552FBD0020137511200F2D8040E0D
:10193000E126020EDB6AFD0EDBCFDEFFDBCFDDFF33
:10194000FC0EDB50000822E20201375100081EE2C3
:101950003651EA6A380FE96E020EEA22EF50E66E5F
:10196000DECFE9FFDDCFEAFFE552E750EF6EDF2A79
:10197000010E01E3DB2A362B320E365D01E3366BB6
:10198000020EDB2A3707FC0EDB06DAD7030E37C25E
:10199000DBFF020EDB50006E040EE15C02E2E16A46
:1019A000E552E16E0050BAD0320C320E0201D880FE
:1019B00002551200AED8030EE126320E0201D88085
:1019C0000255E76E020EE7CFDBFFFC0EDBCF00F027
:1019D000020EDB50D880005402E2010E26D0FD0E2C
:1019E000DBCFDEFFDBCFDDFFFC0EDB5000081CE2AF
:1019F000DECFE9FFDDCFEAFFEF50E66E0051EA6A85
:101A0000030FE96E020EEA22E552E750EF6EDF2A7D
:101A1000010E01E3DB2A002B320E005D01E3006BB7
:101A2000022BFC0EDB06E0D7000E006E030EE15C1D
:101A300002E2E16AE552E16E005070D0320C000C17
:101A400068D8350EE12683EC0EF06FBE02D09FEC15
:101A50000EF038EC08F0320EE66ED950030FE66E49
:101A6000000EDA20E66EC6EC07F0E552E552E552CC
:101A7000E76E020EE7CFDBFFDB50000825E2DF6AEE
:101A8000020EDB50DF5C20E2D950030F006EDACF8C
:101A900001F0DF500F010024E96E000EDA20EA6E3B
:101AA000EF50E66E02013551EA6A380FE96E020E18
:101AB000EA22E552E750EF6E352B320E355D01E339
:101AC000356B372BDF2ADCD70201025100081AE2FE
:101AD0000101DB5117E1020101510101DC6FDD6BF6
:101AE000030EDC27020EDD230101010EE06F010170
:101AF000E16B0101DB6F0201012B320E015D01E39D
:101B0000016B0207350EE15C02E2E16AE552E16E2B
:101B100005D0D9CFE6FFE1CFD9FF1200E552E7CFDC
:041B2000D9FF1200D7
:0C1B2400DBD889EC11F0F3CFDEFFF4CF2A
:101B3000DDFFDECF02F0DDCF03F002C0E6FF03C021
:101B4000E6FF89EC11F0E552E7CF03F0E552E7CF6D
:101B500002F00250F35C006E0350F458016EFD0E6B
:101B6000DBCF04F0FE0EDBCF05F00450005C055027
:101B70000158DFE3020EE15C02E2E16AE5529AD02D
:101B8000ADD889EC11F07CD803E1010EDE6EDD6A80
:101B900096D802E2E16AE5528DD0A0D88EEC11F021
:101BA0006FD803E1010EDE6EDD6A89D802E2E16AD8
:101BB000E55280D093D893EC11F062D803E1010E86
:101BC000DE6EDD6A7CD802E2E16AE55273D063D84A
:101BD0000AE089EC11F054D803E1010EDE6EDD6AF3
:101BE00038D804E377D8F36AF46A01D059D8020EE2
:101BF000E15C02E2E16AE5525DD04DD80AE08EEC8C
:101C000011F03ED803E1010EDE6EDD6A22D804E356
:101C100061D8F36AF46A01D043D8020EE15C02E2B3
:101C2000E16AE55247D037D80AE093EC11F028D8A2
:101C300003E1010EDE6EDD6A0CD804E34BD8F36AD3
:101C4000F46A01D02DD8020EE15C02E2E16AE552AD
:101C500031D04BD8EECF00F0EFCF01F0D9CFE9FF74
:101C6000DACFEAFF0050EE5E0150ED5ADECF00F011
:101C7000DDCF01F041D80250005C03500158120042
:101C8000F3CFDEFFF4CFDDFFD9CFE9FFDACFEAFFF4
:101C9000EE50ED10120022D828D8EE50ED101200B0
:101CA0002BD8DE50025C006EDD50035800C0F3FFFD
:101CB000F46E1200E16EE552E7CFD9FF1200DECFDD
:101CC00000F0DDCF01F000C0F3FF01C0F4FF020E11
:101CD000E15C12000AD8EE6AED6A1200D9CFE6FF85
:101CE000E1CFD9FF020EE1261200FD0EDBCFE9FFA6
:101CF000FE0EDBCFEAFF1200FB0EDBCF02F0FC0E84
:061D0000DBCF03F012002E
:0A1D06006DA60CD80101FC0508E1F0
:101D10006DBA06D0686A696A69806988020EFC6FCC
:101D200012006D6A696A6D860101010EFC6F120076
:101D30006D6A696A0101FC6B120098EF0EF00101F7
:101D4000FC5101E112006850040B04E06950040BDF
:101D500001E046D86DB212006850010B04E06950F2
:101D6000010B01E06AD86850100B04E06950100BB9
:101D700001E02ED86850400B04E06950400B01E0B0
:101D800048D86850200B04E06950200B01E043D88C
:101D90006850020B04E06950020B01E04CD8030EBE
:101DA0000101FC5D01E212000201BD6B040EBD5D8C
:101DB0000EE26850080B0BE06950080B08E0B5EC28
:101DC00005F0000901E168960201BD2BEFD7120072
:101DD000698468986D82A19AA08A0300A09A120073
:101DE0006D92699468A402D06894FCD71200010136
:101DF000FDA10ED06D926D840201080EBE6F070E1C
:101E0000BF6FBE07000EBF5BBE51BF11FAE16D94FC
:101E10001200689C120070A00CD0800E0401005DBE
:101E200007E1840E0401045D03E104018C0E006FE0
:101E30007090689A12006A6A12006A6A686A9F0E55
:101E40006B6E7B0E696E6E6A0F0EE66E710EE66E3D
:101E50000F0EE66E1AD8E552E552E552160E706E78
:101E600068A608D06896000000000000000000008E
:101E70000000F6D76D98E0EC06F00101FD9101013C
:101E8000FE6B0101030EFC6F1200D9CFE6FFE1CF1C
:101E9000D9FFFD0EDBCFE9FFFE0EDBCFEAFFFC0E24
:101EA000DB5004E0EE6AFC0EDB06F9D7E552E7CF23
:041EB000D9FF120044
:0C1EB400D9CFE6FFE1CFD9FFFE0EDB50D6
:101EC000050A2DE0010A21E0070A16E0010A0BE0ED
:101ED000030A2DE1FD0EDB1C9214926E79D8891451
:101EE0000010896E24D0FD0EDB1C9314936E70D805
:101EF0008A1400108A6E1BD0FD0EDB1C9414946EA5
:101F000067D88B1400108B6E12D0FD0EDB96DB1C95
:101F10009514956E5DD88C1400108C6E08D0FD0E53
:101F2000DB1C9614966E54D88D1400108D6EE552FD
:101F3000E7CFD9FF1200D9CFE6FFE1CFD9FFE652B4
:101F4000FE0EDB50050A2BE0010A20E0070A16E02E
:101F5000010A0CE0030A02E0000E35D0FD0EDB5052
:101F60009210926EFD0EDB50801420D0FD0EDB50DF
:101F70009310936EFD0EDB50811418D0FD0EDB50D4
:101F80009410946EFD0EDB50821410D0FD0EDB9683
:101F9000DB509510956EFD0EDB50831407D0FD0EBF
:101FA000DB509610966EFD0EDB508414E66ED9CF92
:101FB000E9FFDACFEAFFE552E750EF6ED9CFE9FF4C
:101FC000DACFEAFFEF50E552E552E7CFD9FF120032
:101FD000FD0EDBCFE6FFFC0EDB50E552E714006E92
:061FE000FD0EDB1C1200E7
:0A1FE600D08EF28EF28C120068D843
:101FF00000EE14F00B0EE80403E3EECFE4FFFBD792
:1020000000EE00F0140EE80403E3EECFE4FFFBD78C
:10201000E652D9CFE6FFE1CFD9FFE6529E509D149C
:10202000300B02E0F8EC0AF0E552E552E7CFD9FFB9
:10203000E55200EE13F0140EE80403E3E5CFEDFFE4
:10204000FBD700EE1EF00B0EE80403E3E5CFEDFF37
:10205000FBD74BD81100D8CFE4FFE0CFE4FFE46E0C
:102060002FD800EE14F00B0EE80403E3EECFE4FFEC
:10207000FBD700EE00F0140EE80403E3EECFE4FF1C
:10208000FBD7E6529E509D14040B02E098EC11F031
:10209000E55200EE13F0140EE80403E3E5CFEDFF84
:1020A000FBD700EE1EF00B0EE80403E3E5CFEDFFD7
:1020B000FBD71BD8E550E5CFE0FFE5CFD8FF1000F8
:1020C000DACFE4FFE2CFDAFFE9CFE4FFEACFE4FFC3
:1020D000F6CFE4FFF7CFE4FFF5CFE4FFF3CFE4FF63
:1020E000F4CFE4FFFACFE4FF1200E5CFFAFFE5CF2B
:1020F000F4FFE5CFF3FFE5CFF5FFE5CFF7FFE5CF41
:10210000F6FFE5CFEAFFE5CFE9FFE5CFDAFF120002
:10211000D9CFE6FFE1CFD9FFE66A75D8EECFE6FF6B
:10212000EECFE6FFEECFE6FFEFCFE6FFFD0EDBCF13
:10213000E6FFFE0EDBCFE6FF08D8006E070EE15E7D
:102140000050E552E7CFD9FF1200D9CFE6FFE1CF2B
:10215000D9FFE652F90EDBCF00F0FA0EDBCF01F02B
:10216000FB0EDBCF02F0FC0EDBCF03F000500110C2
:102170000210031037E0FD0EDBCFE9FFDB2AFE0E75
:10218000DBCFEAFF01E3DB2AEFCFDFFFF80EDB5006
:10219000DF1AF80EDB6ADFA002D05E0E2AD8DFA2BB
:1021A00002D0BC0E26D8DFA402D0610E22D8DFA652
:1021B00002D0C20E1ED8DFA802D09D0E1AD8DFAA08
:1021C00002D0230E16D8DFAC02D0460E12D8DFAEF6
:1021D00002D08C0E0ED817D8EE06000EEE5AEE5A2C
:1021E000EE5AB8D7F80EDB50E552E552E7CFD9FFEB
:1021F0001200006EF80EDBCFE7FF0050E71AF80E72
:10220000E7CFDBFF1200D950F90FE96EFF0EDA209D
:04221000EA6E120060
:0C2214001201000202000008D8040A00B9
:1022200001000102000109024300020100C032095D
:102230000400000102020100052400100104240230
:102240000205240600010524010001070582030898
:10225000000209040100020A000000070503024011
:102260000000070583024000000403090434034D05
:10227000006900630072006F00630068006900700D
:1022800000200054006500630068006E006F006C61
:10229000006F0067007900200049006E0063002E87
:1022A0000034034300440043002000520053002D3B
:1022B00000320033003200200045006D0075006CD4
:1022C000006100740069006F006E0020004400652A
:1022D000006D006F002622262269226D22A122981D
:0122E0000EEF
:0E22E2000001DF6BE06B0A0EE56FE66FCD8E3C
:1022F000CD92CD9ACD980B0EBD6E2E0EBF6EE00E18
:10230000BE6E9F949E949D84CD8012009D94CD902E
:102310001200DFC0F3FFE0C0F4FF1200E1C0F3FFE2
:10232000E2C0F4FF1200E3C0F3FFE4C0F4FF1200C8
:10233000D9CFE6FFE1CFD9FF020EE1269E9400013E
:10234000DF2B000EE023E505DF6EDF5015E1E12B0A
:10235000000EE223E605E76E010EE7CFDBFFDB5060
:1023600006E1E32B000EE423DE520A0EDD6E010EC1
:10237000DBCFE6F00A0EDF6EDFCFE5F0020EE15CA8
:1023800002E2E16AE552E16EE552E7CFD9FF1200C1
:102390001E0EF66E000EF76E000EF86E01010900BB
:1023A000F550F76F0900F550F86F03E1F76701D0BA
:1023B0003DD00900F550F26F0900F550F36F0900A8
:1023C000F550F46F09000900F550E96E0900F55069
:1023D000EA6E090009000900F550F56F0900F55093
:1023E000F66F09000900F6CFF9F1F7CFFAF1F8CF4F
:1023F000FBF1F2C1F6FFF3C1F7FFF4C1F8FF0101F1
:10240000F55302E1F65307E00900F550EE6EF507CB
:10241000F8E2F607F9D7F9C1F6FFFAC1F7FFFBC1F9
:0E242000F8FF0101F707000EF85BBFD71200AE
:02242E00959681
:1024300027D80201010EC06F1200640EE66EE66A34
:10244000C10EE66E020EE66EFDEC0DF0E552E552B1
:10245000E552E552F3CF00F0F4CF01F0F350F41061
:102460000AE10201C05103E0C06B06D803D0010E9F
:10247000C06F04D805D8120083961200838612001C
:0E248000CDEC0DF0F3CFC1F2F4CFC2F212009A
:02248E000FD865
:10249000F3EC0FF071EC11F017EC12F016EC00F009
:1024A0001DEC12F0F3EC01F04BEC02F0F9D7D39EE7
:0A24B000D392D3900F0EC16E1200FC
:0624BA002C08DC0860099B
:1024C000000000000000000000000000000000000C
:1024D000000000000000000000007C16401780177C
:0424E00000000000F8
:0C24E400000EF36E00EE00F0080E01D8B0
:1024F0001200EA6002D0EE6AFCD7F350E9601200E5
:04250000EE6AFCD7AC
:0C25040013EE00F023EE00F0F86A1E9CBD
:10251000C8EC11F003EC00F047EC12F0FBD712000E
:102520002000300030310047454F54524F4C4C0092
:020000040030CA
:0100000024DB
:01000100CE30
:0100020036C7
:0100030000FC
:010005008377
:010006008574
:010008000FE8
:01000900C036
:01000A000FE6
:01000C000FE4
:00000001FF
